{
  "contractName": "TransferFee",
  "abi": [
    {
      "anonymous": false,
      "inputs": [
        {
          "indexed": false,
          "internalType": "address",
          "name": "buyer",
          "type": "address"
        },
        {
          "indexed": true,
          "internalType": "address",
          "name": "owner",
          "type": "address"
        },
        {
          "indexed": true,
          "internalType": "uint256",
          "name": "product_id",
          "type": "uint256"
        },
        {
          "indexed": true,
          "internalType": "uint256",
          "name": "date",
          "type": "uint256"
        },
        {
          "indexed": false,
          "internalType": "uint256",
          "name": "reservationId",
          "type": "uint256"
        }
      ],
      "name": "TransferToContract",
      "type": "event"
    },
    {
      "anonymous": false,
      "inputs": [
        {
          "indexed": false,
          "internalType": "address",
          "name": "buyer",
          "type": "address"
        },
        {
          "indexed": true,
          "internalType": "address",
          "name": "owner",
          "type": "address"
        },
        {
          "indexed": true,
          "internalType": "uint256",
          "name": "product_id",
          "type": "uint256"
        }
      ],
      "name": "TransferToOwner",
      "type": "event"
    },
    {
      "inputs": [
        {
          "internalType": "uint256",
          "name": "",
          "type": "uint256"
        }
      ],
      "name": "ReservationMapping",
      "outputs": [
        {
          "internalType": "address",
          "name": "owner",
          "type": "address"
        },
        {
          "internalType": "address",
          "name": "buyer",
          "type": "address"
        },
        {
          "internalType": "uint256",
          "name": "product_id",
          "type": "uint256"
        },
        {
          "internalType": "uint256",
          "name": "date",
          "type": "uint256"
        },
        {
          "internalType": "uint256",
          "name": "price",
          "type": "uint256"
        }
      ],
      "stateMutability": "view",
      "type": "function",
      "constant": true
    },
    {
      "stateMutability": "payable",
      "type": "receive",
      "payable": true
    },
    {
      "inputs": [
        {
          "internalType": "address",
          "name": "owner",
          "type": "address"
        },
        {
          "internalType": "uint256",
          "name": "product_id",
          "type": "uint256"
        },
        {
          "internalType": "uint256",
          "name": "date",
          "type": "uint256"
        }
      ],
      "name": "transferToContract",
      "outputs": [],
      "stateMutability": "payable",
      "type": "function",
      "payable": true
    },
    {
      "inputs": [
        {
          "internalType": "uint256",
          "name": "reservationId",
          "type": "uint256"
        }
      ],
      "name": "transferToOwner",
      "outputs": [],
      "stateMutability": "payable",
      "type": "function",
      "payable": true
    },
    {
      "inputs": [],
      "name": "getBalanceOfContract",
      "outputs": [
        {
          "internalType": "uint256",
          "name": "",
          "type": "uint256"
        }
      ],
      "stateMutability": "view",
      "type": "function",
      "constant": true
    }
  ],
  "bytecode": "0x6080604052600060015534801561001557600080fd5b50610a40806100256000396000f3fe6080604052600436106100435760003560e01c8063229688851461004f57806330f2b6891461007a57806387c1ed12146100bb57806395f847fd146100d75761004a565b3661004a57005b600080fd5b34801561005b57600080fd5b506100646100f3565b6040516100719190610614565b60405180910390f35b34801561008657600080fd5b506100a1600480360381019061009c9190610660565b6100fb565b6040516100b29594939291906106ce565b60405180910390f35b6100d560048036038101906100d09190610660565b610171565b005b6100f160048036038101906100ec919061074d565b610389565b005b600047905090565b60006020528060005260406000206000915090508060000160009054906101000a900473ffffffffffffffffffffffffffffffffffffffff16908060010160009054906101000a900473ffffffffffffffffffffffffffffffffffffffff16908060020154908060030154908060040154905085565b476000808381526020019081526020016000206004015411156101c9576040517f08c379a00000000000000000000000000000000000000000000000000000000081526004016101c090610823565b60405180910390fd5b6000806000838152602001908152602001600020600401549050600080600084815260200190815260200160002060000160009054906101000a900473ffffffffffffffffffffffffffffffffffffffff169050600080600085815260200190815260200160002060010160009054906101000a900473ffffffffffffffffffffffffffffffffffffffff16905060008060008681526020019081526020016000206002015490508273ffffffffffffffffffffffffffffffffffffffff166108fc859081150290604051600060405180830381858888f193505050501580156102b7573d6000803e3d6000fd5b50600080868152602001908152602001600020600080820160006101000a81549073ffffffffffffffffffffffffffffffffffffffff02191690556001820160006101000a81549073ffffffffffffffffffffffffffffffffffffffff02191690556002820160009055600382016000905560048201600090555050808373ffffffffffffffffffffffffffffffffffffffff167f6810a44383363f6c655b7b4bd827e3395efa504e1df1c94de2f077f101e214458460405161037a9190610843565b60405180910390a35050505050565b343373ffffffffffffffffffffffffffffffffffffffff163110156103e3576040517f08c379a00000000000000000000000000000000000000000000000000000000081526004016103da906108d0565b60405180910390fd5b60003411610426576040517f08c379a000000000000000000000000000000000000000000000000000000000815260040161041d9061093c565b60405180910390fd5b600060015490503073ffffffffffffffffffffffffffffffffffffffff166108fc349081150290604051600060405180830381858888f19350505050158015610473573d6000803e3d6000fd5b506040518060a001604052808573ffffffffffffffffffffffffffffffffffffffff1681526020013373ffffffffffffffffffffffffffffffffffffffff16815260200184815260200183815260200134815250600080600154815260200190815260200160002060008201518160000160006101000a81548173ffffffffffffffffffffffffffffffffffffffff021916908373ffffffffffffffffffffffffffffffffffffffff16021790555060208201518160010160006101000a81548173ffffffffffffffffffffffffffffffffffffffff021916908373ffffffffffffffffffffffffffffffffffffffff160217905550604082015181600201556060820151816003015560808201518160040155905050600180600082825461059c919061098b565b9250508190555081838573ffffffffffffffffffffffffffffffffffffffff167f8b65e9682320c0cc0b7525f06551a6dd8e5471bd6a5d5445d63d5428e0132f4833856040516105ed9291906109e1565b60405180910390a450505050565b6000819050919050565b61060e816105fb565b82525050565b60006020820190506106296000830184610605565b92915050565b600080fd5b61063d816105fb565b811461064857600080fd5b50565b60008135905061065a81610634565b92915050565b6000602082840312156106765761067561062f565b5b60006106848482850161064b565b91505092915050565b600073ffffffffffffffffffffffffffffffffffffffff82169050919050565b60006106b88261068d565b9050919050565b6106c8816106ad565b82525050565b600060a0820190506106e360008301886106bf565b6106f060208301876106bf565b6106fd6040830186610605565b61070a6060830185610605565b6107176080830184610605565b9695505050505050565b61072a816106ad565b811461073557600080fd5b50565b60008135905061074781610721565b92915050565b6000806000606084860312156107665761076561062f565b5b600061077486828701610738565b93505060206107858682870161064b565b92505060406107968682870161064b565b9150509250925092565b600082825260208201905092915050565b7f5468657265206973206e6f206d6f6e657920746f207472616e7366657220746f60008201527f2074686520636f6e74726163742e000000000000000000000000000000000000602082015250565b600061080d602e836107a0565b9150610818826107b1565b604082019050919050565b6000602082019050818103600083015261083c81610800565b9050919050565b600060208201905061085860008301846106bf565b92915050565b7f5468657265206973206e6f7420656e6f756768206b6c617920696e207468652060008201527f6163636f756e7400000000000000000000000000000000000000000000000000602082015250565b60006108ba6027836107a0565b91506108c58261085e565b604082019050919050565b600060208201905081810360008301526108e9816108ad565b9050919050565b7f596f752063616e6e6f742073656e642030206b6c617900000000000000000000600082015250565b60006109266016836107a0565b9150610931826108f0565b602082019050919050565b6000602082019050818103600083015261095581610919565b9050919050565b7f4e487b7100000000000000000000000000000000000000000000000000000000600052601160045260246000fd5b6000610996826105fb565b91506109a1836105fb565b9250827fffffffffffffffffffffffffffffffffffffffffffffffffffffffffffffffff038211156109d6576109d561095c565b5b828201905092915050565b60006040820190506109f660008301856106bf565b610a036020830184610605565b939250505056fea2646970667358221220455da89c155ba9bb0eb2e22395676a7feb5f0fa7faf95682749cf513cc529a1d64736f6c634300080e0033",
  "immutableReferences": {},
  "source": "// SPDX-License-Identifier: MIT\r\npragma solidity ^0.8.0;\r\n\r\ncontract TransferFee{\r\n    event TransferToContract(address buyer, address indexed owner, uint indexed product_id, uint indexed date, uint reservationId);\r\n    event TransferToOwner(address buyer, address indexed owner, uint indexed product_id);\r\n\r\n    struct ReservationInfo {\r\n        address owner;\r\n        address buyer;\r\n        uint product_id;\r\n        uint date;\r\n        uint price;\r\n    }\r\n\r\n    mapping (uint => ReservationInfo) public ReservationMapping;\r\n\r\n    uint private id = 0;\r\n\r\n    receive() external payable {\r\n    }\r\n\r\n    /// @dev :  contract  \r\n    function transferToContract(address owner, uint product_id, uint date) public payable {\r\n        require(msg.sender.balance >= msg.value, \"There is not enough klay in the account\");\r\n        require(msg.value > 0, \"You cannot send 0 klay\");\r\n\r\n        uint reservationId = id;\r\n\r\n        payable(address(this)).transfer(msg.value);\r\n        ReservationMapping[id] = ReservationInfo(owner, msg.sender, product_id, date, msg.value);\r\n        id += 1;\r\n\r\n        emit TransferToContract(msg.sender, owner, product_id, date, reservationId);\r\n    }\r\n\r\n    /// @dev : contract   \r\n    function transferToOwner(uint reservationId) public payable {\r\n        require(ReservationMapping[reservationId].price <= address(this).balance, \"There is no money to transfer to the contract.\");\r\n\r\n        uint fee = ReservationMapping[reservationId].price;\r\n        address owner = ReservationMapping[reservationId].owner;\r\n        address buyer = ReservationMapping[reservationId].buyer;\r\n        uint product_id = ReservationMapping[reservationId].product_id;\r\n\r\n        payable(owner).transfer(fee);\r\n        delete ReservationMapping[reservationId];\r\n\r\n        emit TransferToOwner(buyer, owner, product_id);\r\n    }\r\n\r\n    function getBalanceOfContract() public view returns (uint) {\r\n        return address(this).balance;\r\n    }\r\n}\r\n",
  "sourcePath": "C:\\Users\\dlqhd\\Documents\\AirWithBlock_with_Klaytn\\truffle-contract\\contracts\\TransferFee.sol",
  "compiler": {
    "name": "solc",
    "version": "0.8.14+commit.80d49f37.Emscripten.clang"
  },
  "schemaVersion": "3.4.7",
  "updatedAt": "2022-06-24T05:51:45.074Z",
  "networkType": "ethereum",
  "devdoc": {
    "kind": "dev",
    "methods": {
      "transferToContract(address,uint256,uint256)": {
        "details": ":  contract  "
      },
      "transferToOwner(uint256)": {
        "details": ": contract   "
      }
    },
    "version": 1
  },
  "userdoc": {
    "kind": "user",
    "methods": {},
    "version": 1
  }
}