{
  "contractName": "TransferFee",
  "abi": [
    {
      "anonymous": false,
      "inputs": [
        {
          "indexed": false,
          "internalType": "address",
          "name": "buyer",
          "type": "address"
        },
        {
          "indexed": true,
          "internalType": "address",
          "name": "owner",
          "type": "address"
        },
        {
          "indexed": true,
          "internalType": "uint256",
          "name": "product_id",
          "type": "uint256"
        },
        {
          "indexed": true,
          "internalType": "uint256",
          "name": "date",
          "type": "uint256"
        },
        {
          "indexed": false,
          "internalType": "uint256",
          "name": "reservationId",
          "type": "uint256"
        }
      ],
      "name": "TransferToContract",
      "type": "event"
    },
    {
      "anonymous": false,
      "inputs": [
        {
          "indexed": false,
          "internalType": "address",
          "name": "buyer",
          "type": "address"
        },
        {
          "indexed": true,
          "internalType": "address",
          "name": "owner",
          "type": "address"
        },
        {
          "indexed": true,
          "internalType": "uint256",
          "name": "product_id",
          "type": "uint256"
        }
      ],
      "name": "TransferToOwner",
      "type": "event"
    },
    {
      "inputs": [
        {
          "internalType": "uint256",
          "name": "",
          "type": "uint256"
        }
      ],
      "name": "ReservationMapping",
      "outputs": [
        {
          "internalType": "address",
          "name": "owner",
          "type": "address"
        },
        {
          "internalType": "address",
          "name": "buyer",
          "type": "address"
        },
        {
          "internalType": "uint256",
          "name": "product_id",
          "type": "uint256"
        },
        {
          "internalType": "uint256",
          "name": "date",
          "type": "uint256"
        },
        {
          "internalType": "uint256",
          "name": "price",
          "type": "uint256"
        }
      ],
      "stateMutability": "view",
      "type": "function",
      "constant": true
    },
    {
      "stateMutability": "payable",
      "type": "receive",
      "payable": true
    },
    {
      "inputs": [
        {
          "internalType": "address",
          "name": "owner",
          "type": "address"
        },
        {
          "internalType": "uint256",
          "name": "product_id",
          "type": "uint256"
        },
        {
          "internalType": "uint256",
          "name": "date",
          "type": "uint256"
        }
      ],
      "name": "transferToContract",
      "outputs": [],
      "stateMutability": "payable",
      "type": "function",
      "payable": true
    },
    {
      "inputs": [
        {
          "internalType": "uint256",
          "name": "reservationId",
          "type": "uint256"
        },
        {
          "internalType": "address",
          "name": "buyer_address",
          "type": "address"
        }
      ],
      "name": "transferToOwner",
      "outputs": [],
      "stateMutability": "payable",
      "type": "function",
      "payable": true
    },
    {
      "inputs": [],
      "name": "getBalanceOfContract",
      "outputs": [
        {
          "internalType": "uint256",
          "name": "",
          "type": "uint256"
        }
      ],
      "stateMutability": "view",
      "type": "function",
      "constant": true
    },
    {
      "inputs": [
        {
          "internalType": "address",
          "name": "_addr",
          "type": "address"
        }
      ],
      "name": "getBalanceOfAddress",
      "outputs": [
        {
          "internalType": "uint256",
          "name": "",
          "type": "uint256"
        }
      ],
      "stateMutability": "view",
      "type": "function",
      "constant": true
    }
  ],
  "bytecode": "0x6080604052600060015534801561001557600080fd5b50610b5e806100256000396000f3fe60806040526004361061004e5760003560e01c8063229688851461005a57806330f2b6891461008557806339ee48f6146100c657806395f847fd146100e2578063a665c4a4146100fe57610055565b3661005557005b600080fd5b34801561006657600080fd5b5061006f61013b565b60405161007c91906106eb565b60405180910390f35b34801561009157600080fd5b506100ac60048036038101906100a79190610737565b610143565b6040516100bd9594939291906107a5565b60405180910390f35b6100e060048036038101906100db9190610824565b6101b9565b005b6100fc60048036038101906100f79190610864565b610475565b005b34801561010a57600080fd5b50610125600480360381019061012091906108b7565b6106b1565b60405161013291906106eb565b60405180910390f35b600047905090565b60006020528060005260406000206000915090508060000160009054906101000a900473ffffffffffffffffffffffffffffffffffffffff16908060010160009054906101000a900473ffffffffffffffffffffffffffffffffffffffff16908060020154908060030154908060040154905085565b47600080848152602001908152602001600020600401541115610211576040517f08c379a000000000000000000000000000000000000000000000000000000000815260040161020890610967565b60405180910390fd5b8073ffffffffffffffffffffffffffffffffffffffff1660008084815260200190815260200160002060010160009054906101000a900473ffffffffffffffffffffffffffffffffffffffff1673ffffffffffffffffffffffffffffffffffffffff16146102b4576040517f08c379a00000000000000000000000000000000000000000000000000000000081526004016102ab906109d3565b60405180910390fd5b6000806000848152602001908152602001600020600401549050600080600085815260200190815260200160002060000160009054906101000a900473ffffffffffffffffffffffffffffffffffffffff169050600080600086815260200190815260200160002060010160009054906101000a900473ffffffffffffffffffffffffffffffffffffffff16905060008060008781526020019081526020016000206002015490508273ffffffffffffffffffffffffffffffffffffffff166108fc859081150290604051600060405180830381858888f193505050501580156103a2573d6000803e3d6000fd5b50600080878152602001908152602001600020600080820160006101000a81549073ffffffffffffffffffffffffffffffffffffffff02191690556001820160006101000a81549073ffffffffffffffffffffffffffffffffffffffff02191690556002820160009055600382016000905560048201600090555050808373ffffffffffffffffffffffffffffffffffffffff167f6810a44383363f6c655b7b4bd827e3395efa504e1df1c94de2f077f101e214458460405161046591906109f3565b60405180910390a3505050505050565b3373ffffffffffffffffffffffffffffffffffffffff163134111561049957600080fd5b600034116104dc576040517f08c379a00000000000000000000000000000000000000000000000000000000081526004016104d390610a5a565b60405180910390fd5b600060015490503073ffffffffffffffffffffffffffffffffffffffff166108fc349081150290604051600060405180830381858888f19350505050158015610529573d6000803e3d6000fd5b506040518060a001604052808573ffffffffffffffffffffffffffffffffffffffff1681526020013373ffffffffffffffffffffffffffffffffffffffff16815260200184815260200183815260200134815250600080600154815260200190815260200160002060008201518160000160006101000a81548173ffffffffffffffffffffffffffffffffffffffff021916908373ffffffffffffffffffffffffffffffffffffffff16021790555060208201518160010160006101000a81548173ffffffffffffffffffffffffffffffffffffffff021916908373ffffffffffffffffffffffffffffffffffffffff16021790555060408201518160020155606082015181600301556080820151816004015590505060018060008282546106529190610aa9565b9250508190555081838573ffffffffffffffffffffffffffffffffffffffff167f8b65e9682320c0cc0b7525f06551a6dd8e5471bd6a5d5445d63d5428e0132f4833856040516106a3929190610aff565b60405180910390a450505050565b60008173ffffffffffffffffffffffffffffffffffffffff16319050919050565b6000819050919050565b6106e5816106d2565b82525050565b600060208201905061070060008301846106dc565b92915050565b600080fd5b610714816106d2565b811461071f57600080fd5b50565b6000813590506107318161070b565b92915050565b60006020828403121561074d5761074c610706565b5b600061075b84828501610722565b91505092915050565b600073ffffffffffffffffffffffffffffffffffffffff82169050919050565b600061078f82610764565b9050919050565b61079f81610784565b82525050565b600060a0820190506107ba6000830188610796565b6107c76020830187610796565b6107d460408301866106dc565b6107e160608301856106dc565b6107ee60808301846106dc565b9695505050505050565b61080181610784565b811461080c57600080fd5b50565b60008135905061081e816107f8565b92915050565b6000806040838503121561083b5761083a610706565b5b600061084985828601610722565b925050602061085a8582860161080f565b9150509250929050565b60008060006060848603121561087d5761087c610706565b5b600061088b8682870161080f565b935050602061089c86828701610722565b92505060406108ad86828701610722565b9150509250925092565b6000602082840312156108cd576108cc610706565b5b60006108db8482850161080f565b91505092915050565b600082825260208201905092915050565b7f5468657265206973206e6f206d6f6e657920746f207472616e7366657220746f60008201527f2074686520636f6e74726163742e000000000000000000000000000000000000602082015250565b6000610951602e836108e4565b915061095c826108f5565b604082019050919050565b6000602082019050818103600083015261098081610944565b9050919050565b7f49742773206e6f74206120627579657200000000000000000000000000000000600082015250565b60006109bd6010836108e4565b91506109c882610987565b602082019050919050565b600060208201905081810360008301526109ec816109b0565b9050919050565b6000602082019050610a086000830184610796565b92915050565b7f596f752063616e6e6f742073656e642030206b6c617900000000000000000000600082015250565b6000610a446016836108e4565b9150610a4f82610a0e565b602082019050919050565b60006020820190508181036000830152610a7381610a37565b9050919050565b7f4e487b7100000000000000000000000000000000000000000000000000000000600052601160045260246000fd5b6000610ab4826106d2565b9150610abf836106d2565b9250827fffffffffffffffffffffffffffffffffffffffffffffffffffffffffffffffff03821115610af457610af3610a7a565b5b828201905092915050565b6000604082019050610b146000830185610796565b610b2160208301846106dc565b939250505056fea264697066735822122083cdd8bfe150a61fb8a3c5acb25058fad33973284e47d94830e4089413b1033164736f6c634300080e0033",
  "immutableReferences": {},
  "source": "// SPDX-License-Identifier: MIT\r\npragma solidity ^0.8.0;\r\n\r\ncontract TransferFee{\r\n    event TransferToContract(address buyer, address indexed owner, uint indexed product_id, uint indexed date, uint reservationId);\r\n    event TransferToOwner(address buyer, address indexed owner, uint indexed product_id);\r\n\r\n    struct ReservationInfo {\r\n        address owner;\r\n        address buyer;\r\n        uint product_id;\r\n        uint date;\r\n        uint price;\r\n    }\r\n\r\n    mapping (uint => ReservationInfo) public ReservationMapping;\r\n\r\n    uint private id = 0;\r\n\r\n    receive() external payable {\r\n    }\r\n\r\n    /// @dev :  contract  \r\n    function transferToContract(address owner, uint product_id, uint date) public payable {\r\n        if (msg.value > msg.sender.balance) {revert();}\r\n        require(msg.value > 0, \"You cannot send 0 klay\");\r\n\r\n        uint reservationId = id;\r\n\r\n        payable(address(this)).transfer(msg.value);\r\n        ReservationMapping[id] = ReservationInfo(owner, msg.sender, product_id, date, msg.value);\r\n        id += 1;\r\n\r\n        emit TransferToContract(msg.sender, owner, product_id, date, reservationId);\r\n    }\r\n\r\n    /// @dev : contract   \r\n    function transferToOwner(uint reservationId, address buyer_address) public payable {\r\n        require(ReservationMapping[reservationId].price <= address(this).balance, \"There is no money to transfer to the contract.\");\r\n        require(ReservationMapping[reservationId].buyer == buyer_address, \"It's not a buyer\");\r\n\r\n        uint fee = ReservationMapping[reservationId].price;\r\n        address owner = ReservationMapping[reservationId].owner;\r\n        address buyer = ReservationMapping[reservationId].buyer;\r\n        uint product_id = ReservationMapping[reservationId].product_id;\r\n\r\n        payable(owner).transfer(fee);\r\n        delete ReservationMapping[reservationId];\r\n\r\n        emit TransferToOwner(buyer, owner, product_id);\r\n    }\r\n\r\n    function getBalanceOfContract() public view returns (uint) {\r\n        return address(this).balance;\r\n    }\r\n\r\n    function getBalanceOfAddress(address _addr) public view returns (uint) {\r\n        return _addr.balance;\r\n    }\r\n}\r\n",
  "sourcePath": "C:\\Users\\dlqhd\\Documents\\AirWithBlock_with_Klaytn\\truffle-contract\\contracts\\TransferFee.sol",
  "compiler": {
    "name": "solc",
    "version": "0.8.14+commit.80d49f37.Emscripten.clang"
  },
  "schemaVersion": "3.4.7",
  "updatedAt": "2022-06-30T00:52:43.397Z",
  "networkType": "ethereum",
  "devdoc": {
    "kind": "dev",
    "methods": {
      "transferToContract(address,uint256,uint256)": {
        "details": ":  contract  "
      },
      "transferToOwner(uint256,address)": {
        "details": ": contract   "
      }
    },
    "version": 1
  },
  "userdoc": {
    "kind": "user",
    "methods": {},
    "version": 1
  }
}