{
  "contractName": "TransferFee",
  "abi": [
    {
      "anonymous": false,
      "inputs": [
        {
          "indexed": false,
          "internalType": "address",
          "name": "_from",
          "type": "address"
        },
        {
          "indexed": false,
          "internalType": "address",
          "name": "_to",
          "type": "address"
        },
        {
          "indexed": false,
          "internalType": "uint256",
          "name": "_fee",
          "type": "uint256"
        }
      ],
      "name": "TransferSuccess",
      "type": "event"
    },
    {
      "inputs": [
        {
          "internalType": "address payable",
          "name": "_to",
          "type": "address"
        }
      ],
      "name": "transferFee",
      "outputs": [],
      "stateMutability": "payable",
      "type": "function",
      "payable": true
    }
  ],
  "bytecode": "0x608060405234801561001057600080fd5b506104e1806100206000396000f3fe60806040526004361061001e5760003560e01c8063ea8c4bcf14610023575b600080fd5b61003d60048036038101906100389190610233565b61003f565b005b600073ffffffffffffffffffffffffffffffffffffffff168173ffffffffffffffffffffffffffffffffffffffff16116100ae576040517f08c379a00000000000000000000000000000000000000000000000000000000081526004016100a5906102bd565b60405180910390fd5b343373ffffffffffffffffffffffffffffffffffffffff16311015610108576040517f08c379a00000000000000000000000000000000000000000000000000000000081526004016100ff9061034f565b60405180910390fd5b6000341161014b576040517f08c379a0000000000000000000000000000000000000000000000000000000008152600401610142906103bb565b60405180910390fd5b8073ffffffffffffffffffffffffffffffffffffffff166108fc349081150290604051600060405180830381858888f19350505050158015610191573d6000803e3d6000fd5b507fa170301a3eaa747fe3afbb4de1c3601cf3dee8ef5a572fcb6aaca116cf42c8ee3382346040516101c593929190610474565b60405180910390a150565b600080fd5b600073ffffffffffffffffffffffffffffffffffffffff82169050919050565b6000610200826101d5565b9050919050565b610210816101f5565b811461021b57600080fd5b50565b60008135905061022d81610207565b92915050565b600060208284031215610249576102486101d0565b5b60006102578482850161021e565b91505092915050565b600082825260208201905092915050565b7f54686973206973206e6f7420612076616c696420616464726573730000000000600082015250565b60006102a7601b83610260565b91506102b282610271565b602082019050919050565b600060208201905081810360008301526102d68161029a565b9050919050565b7f5468657265206973206e6f7420656e6f756768206b6c617920696e207468652060008201527f6163636f756e7400000000000000000000000000000000000000000000000000602082015250565b6000610339602783610260565b9150610344826102dd565b604082019050919050565b600060208201905081810360008301526103688161032c565b9050919050565b7f596f752063616e6e6f742073656e642030206b6c617900000000000000000000600082015250565b60006103a5601683610260565b91506103b08261036f565b602082019050919050565b600060208201905081810360008301526103d481610398565b9050919050565b60006103e6826101d5565b9050919050565b6103f6816103db565b82525050565b6000819050919050565b600061042161041c610417846101d5565b6103fc565b6101d5565b9050919050565b600061043382610406565b9050919050565b600061044582610428565b9050919050565b6104558161043a565b82525050565b6000819050919050565b61046e8161045b565b82525050565b600060608201905061048960008301866103ed565b610496602083018561044c565b6104a36040830184610465565b94935050505056fea2646970667358221220ee5fc4f3e902d5c691b226c1e8b4ec857f527a7fc8be1230a0bafd2e84bb89c464736f6c634300080e0033",
  "immutableReferences": {},
  "source": "// SPDX-License-Identifier: MIT\r\npragma solidity ^0.8.0;\r\n\r\ncontract TransferFee{\r\n    event TransferSuccess(address _from, address _to, uint _fee);\r\n\r\n    function transferFee(address payable _to) public payable {\r\n        require(_to > address(0), \"This is not a valid address\");\r\n        require(msg.sender.balance >= msg.value, \"There is not enough klay in the account\");\r\n        require(msg.value > 0, \"You cannot send 0 klay\");\r\n\r\n        _to.transfer(msg.value);\r\n\r\n        emit TransferSuccess(msg.sender, _to, msg.value);\r\n    }\r\n\r\n}",
  "sourcePath": "C:\\Users\\dlqhd\\Documents\\AirnBlockb_with_Klaytn\\truffle-contract\\contracts\\TransferFee.sol",
  "compiler": {
    "name": "solc",
    "version": "0.8.14+commit.80d49f37.Emscripten.clang"
  },
  "schemaVersion": "3.4.7",
  "updatedAt": "2022-06-07T05:40:20.650Z",
  "networkType": "ethereum",
  "devdoc": {
    "kind": "dev",
    "methods": {},
    "version": 1
  },
  "userdoc": {
    "kind": "user",
    "methods": {},
    "version": 1
  }
}