{
  "contractName": "TransferFee",
  "abi": [
    {
      "anonymous": false,
      "inputs": [
        {
          "indexed": true,
          "internalType": "address",
          "name": "owner",
          "type": "address"
        },
        {
          "indexed": false,
          "internalType": "uint256",
          "name": "owner_money",
          "type": "uint256"
        },
        {
          "indexed": true,
          "internalType": "address",
          "name": "buyer",
          "type": "address"
        },
        {
          "indexed": false,
          "internalType": "uint256",
          "name": "buyer_money",
          "type": "uint256"
        }
      ],
      "name": "CancelReservation",
      "type": "event"
    },
    {
      "anonymous": false,
      "inputs": [
        {
          "indexed": false,
          "internalType": "address",
          "name": "buyer",
          "type": "address"
        },
        {
          "indexed": true,
          "internalType": "address",
          "name": "owner",
          "type": "address"
        },
        {
          "indexed": true,
          "internalType": "uint256",
          "name": "product_id",
          "type": "uint256"
        },
        {
          "indexed": true,
          "internalType": "uint256",
          "name": "date",
          "type": "uint256"
        },
        {
          "indexed": false,
          "internalType": "uint256",
          "name": "reservationId",
          "type": "uint256"
        }
      ],
      "name": "TransferToContract",
      "type": "event"
    },
    {
      "anonymous": false,
      "inputs": [
        {
          "indexed": false,
          "internalType": "address",
          "name": "buyer",
          "type": "address"
        },
        {
          "indexed": true,
          "internalType": "address",
          "name": "owner",
          "type": "address"
        },
        {
          "indexed": true,
          "internalType": "uint256",
          "name": "product_id",
          "type": "uint256"
        }
      ],
      "name": "TransferToOwner",
      "type": "event"
    },
    {
      "anonymous": false,
      "inputs": [
        {
          "indexed": true,
          "internalType": "address",
          "name": "owner",
          "type": "address"
        },
        {
          "indexed": false,
          "internalType": "uint256",
          "name": "fee",
          "type": "uint256"
        },
        {
          "indexed": true,
          "internalType": "uint256",
          "name": "product_id",
          "type": "uint256"
        }
      ],
      "name": "TransferToOwnerByOwner",
      "type": "event"
    },
    {
      "inputs": [
        {
          "internalType": "uint256",
          "name": "",
          "type": "uint256"
        }
      ],
      "name": "ReservationMapping",
      "outputs": [
        {
          "internalType": "address",
          "name": "owner",
          "type": "address"
        },
        {
          "internalType": "address",
          "name": "buyer",
          "type": "address"
        },
        {
          "internalType": "uint256",
          "name": "product_id",
          "type": "uint256"
        },
        {
          "internalType": "uint256",
          "name": "date",
          "type": "uint256"
        },
        {
          "internalType": "uint256",
          "name": "price",
          "type": "uint256"
        }
      ],
      "stateMutability": "view",
      "type": "function",
      "constant": true
    },
    {
      "stateMutability": "payable",
      "type": "receive",
      "payable": true
    },
    {
      "inputs": [
        {
          "internalType": "address",
          "name": "owner",
          "type": "address"
        },
        {
          "internalType": "uint256",
          "name": "product_id",
          "type": "uint256"
        },
        {
          "internalType": "uint256",
          "name": "date",
          "type": "uint256"
        }
      ],
      "name": "transferToContract",
      "outputs": [],
      "stateMutability": "payable",
      "type": "function",
      "payable": true
    },
    {
      "inputs": [
        {
          "internalType": "uint256",
          "name": "reservationId",
          "type": "uint256"
        },
        {
          "internalType": "address",
          "name": "buyer_address",
          "type": "address"
        }
      ],
      "name": "transferToOwner",
      "outputs": [],
      "stateMutability": "payable",
      "type": "function",
      "payable": true
    },
    {
      "inputs": [
        {
          "internalType": "uint256",
          "name": "reservationId",
          "type": "uint256"
        },
        {
          "internalType": "address",
          "name": "buyer_address",
          "type": "address"
        },
        {
          "internalType": "uint256",
          "name": "percent",
          "type": "uint256"
        }
      ],
      "name": "cancelReservation",
      "outputs": [],
      "stateMutability": "payable",
      "type": "function",
      "payable": true
    },
    {
      "inputs": [
        {
          "internalType": "uint256",
          "name": "reservationId",
          "type": "uint256"
        },
        {
          "internalType": "address",
          "name": "owner_address",
          "type": "address"
        }
      ],
      "name": "transferToOwnerByOwner",
      "outputs": [],
      "stateMutability": "payable",
      "type": "function",
      "payable": true
    },
    {
      "inputs": [],
      "name": "getBalanceOfContract",
      "outputs": [
        {
          "internalType": "uint256",
          "name": "",
          "type": "uint256"
        }
      ],
      "stateMutability": "view",
      "type": "function",
      "constant": true
    },
    {
      "inputs": [
        {
          "internalType": "address",
          "name": "_addr",
          "type": "address"
        }
      ],
      "name": "getBalanceOfAddress",
      "outputs": [
        {
          "internalType": "uint256",
          "name": "",
          "type": "uint256"
        }
      ],
      "stateMutability": "view",
      "type": "function",
      "constant": true
    }
  ],
  "bytecode": "0x6080604052600060015534801561001557600080fd5b50611342806100256000396000f3fe6080604052600436106100745760003560e01c80638152fa461161004e5780638152fa461461010857806395f847fd14610124578063a665c4a414610140578063f233b84d1461017d5761007b565b8063229688851461008057806330f2b689146100ab57806339ee48f6146100ec5761007b565b3661007b57005b600080fd5b34801561008c57600080fd5b50610095610199565b6040516100a29190610cf9565b60405180910390f35b3480156100b757600080fd5b506100d260048036038101906100cd9190610d45565b6101a1565b6040516100e3959493929190610db3565b60405180910390f35b61010660048036038101906101019190610e32565b610217565b005b610122600480360381019061011d9190610e32565b6104d3565b005b61013e60048036038101906101399190610e72565b610754565b005b34801561014c57600080fd5b5061016760048036038101906101629190610ec5565b610990565b6040516101749190610cf9565b60405180910390f35b61019760048036038101906101929190610ef2565b6109b1565b005b600047905090565b60006020528060005260406000206000915090508060000160009054906101000a900473ffffffffffffffffffffffffffffffffffffffff16908060010160009054906101000a900473ffffffffffffffffffffffffffffffffffffffff16908060020154908060030154908060040154905085565b4760008084815260200190815260200160002060040154111561026f576040517f08c379a000000000000000000000000000000000000000000000000000000000815260040161026690610fc8565b60405180910390fd5b8073ffffffffffffffffffffffffffffffffffffffff1660008084815260200190815260200160002060010160009054906101000a900473ffffffffffffffffffffffffffffffffffffffff1673ffffffffffffffffffffffffffffffffffffffff1614610312576040517f08c379a000000000000000000000000000000000000000000000000000000000815260040161030990611034565b60405180910390fd5b6000806000848152602001908152602001600020600401549050600080600085815260200190815260200160002060000160009054906101000a900473ffffffffffffffffffffffffffffffffffffffff169050600080600086815260200190815260200160002060010160009054906101000a900473ffffffffffffffffffffffffffffffffffffffff16905060008060008781526020019081526020016000206002015490508273ffffffffffffffffffffffffffffffffffffffff166108fc859081150290604051600060405180830381858888f19350505050158015610400573d6000803e3d6000fd5b50600080878152602001908152602001600020600080820160006101000a81549073ffffffffffffffffffffffffffffffffffffffff02191690556001820160006101000a81549073ffffffffffffffffffffffffffffffffffffffff02191690556002820160009055600382016000905560048201600090555050808373ffffffffffffffffffffffffffffffffffffffff167f6810a44383363f6c655b7b4bd827e3395efa504e1df1c94de2f077f101e21445846040516104c39190611054565b60405180910390a3505050505050565b4760008084815260200190815260200160002060040154111561052b576040517f08c379a000000000000000000000000000000000000000000000000000000000815260040161052290610fc8565b60405180910390fd5b8073ffffffffffffffffffffffffffffffffffffffff1660008084815260200190815260200160002060000160009054906101000a900473ffffffffffffffffffffffffffffffffffffffff1673ffffffffffffffffffffffffffffffffffffffff16146105ce576040517f08c379a00000000000000000000000000000000000000000000000000000000081526004016105c5906110bb565b60405180910390fd5b6000806000848152602001908152602001600020600401549050600080600085815260200190815260200160002060000160009054906101000a900473ffffffffffffffffffffffffffffffffffffffff16905060008060008681526020019081526020016000206002015490508173ffffffffffffffffffffffffffffffffffffffff166108fc849081150290604051600060405180830381858888f19350505050158015610682573d6000803e3d6000fd5b50600080868152602001908152602001600020600080820160006101000a81549073ffffffffffffffffffffffffffffffffffffffff02191690556001820160006101000a81549073ffffffffffffffffffffffffffffffffffffffff02191690556002820160009055600382016000905560048201600090555050808273ffffffffffffffffffffffffffffffffffffffff167f80784efd5b5be95d00189121bd83bf63916d8e0903208c3e656f4e2e7832dd47856040516107459190610cf9565b60405180910390a35050505050565b3373ffffffffffffffffffffffffffffffffffffffff163134111561077857600080fd5b600034116107bb576040517f08c379a00000000000000000000000000000000000000000000000000000000081526004016107b290611127565b60405180910390fd5b600060015490503073ffffffffffffffffffffffffffffffffffffffff166108fc349081150290604051600060405180830381858888f19350505050158015610808573d6000803e3d6000fd5b506040518060a001604052808573ffffffffffffffffffffffffffffffffffffffff1681526020013373ffffffffffffffffffffffffffffffffffffffff16815260200184815260200183815260200134815250600080600154815260200190815260200160002060008201518160000160006101000a81548173ffffffffffffffffffffffffffffffffffffffff021916908373ffffffffffffffffffffffffffffffffffffffff16021790555060208201518160010160006101000a81548173ffffffffffffffffffffffffffffffffffffffff021916908373ffffffffffffffffffffffffffffffffffffffff16021790555060408201518160020155606082015181600301556080820151816004015590505060018060008282546109319190611176565b9250508190555081838573ffffffffffffffffffffffffffffffffffffffff167f8b65e9682320c0cc0b7525f06551a6dd8e5471bd6a5d5445d63d5428e0132f4833856040516109829291906111cc565b60405180910390a450505050565b60008173ffffffffffffffffffffffffffffffffffffffff16319050919050565b47600080858152602001908152602001600020600401541115610a09576040517f08c379a0000000000000000000000000000000000000000000000000000000008152600401610a0090610fc8565b60405180910390fd5b8173ffffffffffffffffffffffffffffffffffffffff1660008085815260200190815260200160002060010160009054906101000a900473ffffffffffffffffffffffffffffffffffffffff1673ffffffffffffffffffffffffffffffffffffffff1614610aac576040517f08c379a0000000000000000000000000000000000000000000000000000000008152600401610aa390611034565b60405180910390fd5b6000806000858152602001908152602001600020600401549050600060648383610ad691906111f5565b610ae0919061127e565b905060008183610af091906112af565b9050600080600088815260200190815260200160002060000160009054906101000a900473ffffffffffffffffffffffffffffffffffffffff169050600080600089815260200190815260200160002060010160009054906101000a900473ffffffffffffffffffffffffffffffffffffffff1690508173ffffffffffffffffffffffffffffffffffffffff166108fc849081150290604051600060405180830381858888f19350505050158015610bac573d6000803e3d6000fd5b508073ffffffffffffffffffffffffffffffffffffffff166108fc859081150290604051600060405180830381858888f19350505050158015610bf3573d6000803e3d6000fd5b50600080898152602001908152602001600020600080820160006101000a81549073ffffffffffffffffffffffffffffffffffffffff02191690556001820160006101000a81549073ffffffffffffffffffffffffffffffffffffffff021916905560028201600090556003820160009055600482016000905550508073ffffffffffffffffffffffffffffffffffffffff168273ffffffffffffffffffffffffffffffffffffffff167fb03eafd3e5eb854e38ec8c641ecaae9888941b32d02024a5a8572d33798f5fcb8587604051610cce9291906112e3565b60405180910390a35050505050505050565b6000819050919050565b610cf381610ce0565b82525050565b6000602082019050610d0e6000830184610cea565b92915050565b600080fd5b610d2281610ce0565b8114610d2d57600080fd5b50565b600081359050610d3f81610d19565b92915050565b600060208284031215610d5b57610d5a610d14565b5b6000610d6984828501610d30565b91505092915050565b600073ffffffffffffffffffffffffffffffffffffffff82169050919050565b6000610d9d82610d72565b9050919050565b610dad81610d92565b82525050565b600060a082019050610dc86000830188610da4565b610dd56020830187610da4565b610de26040830186610cea565b610def6060830185610cea565b610dfc6080830184610cea565b9695505050505050565b610e0f81610d92565b8114610e1a57600080fd5b50565b600081359050610e2c81610e06565b92915050565b60008060408385031215610e4957610e48610d14565b5b6000610e5785828601610d30565b9250506020610e6885828601610e1d565b9150509250929050565b600080600060608486031215610e8b57610e8a610d14565b5b6000610e9986828701610e1d565b9350506020610eaa86828701610d30565b9250506040610ebb86828701610d30565b9150509250925092565b600060208284031215610edb57610eda610d14565b5b6000610ee984828501610e1d565b91505092915050565b600080600060608486031215610f0b57610f0a610d14565b5b6000610f1986828701610d30565b9350506020610f2a86828701610e1d565b9250506040610f3b86828701610d30565b9150509250925092565b600082825260208201905092915050565b7f5468657265206973206e6f206d6f6e657920746f207472616e7366657220746f60008201527f2074686520636f6e74726163742e000000000000000000000000000000000000602082015250565b6000610fb2602e83610f45565b9150610fbd82610f56565b604082019050919050565b60006020820190508181036000830152610fe181610fa5565b9050919050565b7f49742773206e6f74206120627579657200000000000000000000000000000000600082015250565b600061101e601083610f45565b915061102982610fe8565b602082019050919050565b6000602082019050818103600083015261104d81611011565b9050919050565b60006020820190506110696000830184610da4565b92915050565b7f49742773206e6f742061206f776e657200000000000000000000000000000000600082015250565b60006110a5601083610f45565b91506110b08261106f565b602082019050919050565b600060208201905081810360008301526110d481611098565b9050919050565b7f596f752063616e6e6f742073656e642030206b6c617900000000000000000000600082015250565b6000611111601683610f45565b915061111c826110db565b602082019050919050565b6000602082019050818103600083015261114081611104565b9050919050565b7f4e487b7100000000000000000000000000000000000000000000000000000000600052601160045260246000fd5b600061118182610ce0565b915061118c83610ce0565b9250827fffffffffffffffffffffffffffffffffffffffffffffffffffffffffffffffff038211156111c1576111c0611147565b5b828201905092915050565b60006040820190506111e16000830185610da4565b6111ee6020830184610cea565b9392505050565b600061120082610ce0565b915061120b83610ce0565b9250817fffffffffffffffffffffffffffffffffffffffffffffffffffffffffffffffff048311821515161561124457611243611147565b5b828202905092915050565b7f4e487b7100000000000000000000000000000000000000000000000000000000600052601260045260246000fd5b600061128982610ce0565b915061129483610ce0565b9250826112a4576112a361124f565b5b828204905092915050565b60006112ba82610ce0565b91506112c583610ce0565b9250828210156112d8576112d7611147565b5b828203905092915050565b60006040820190506112f86000830185610cea565b6113056020830184610cea565b939250505056fea2646970667358221220bd6971bde814bc14699a6fa95b95763161cf6e6035091e9ddf8d897536d6a67d64736f6c634300080e0033",
  "immutableReferences": {},
  "source": "// SPDX-License-Identifier: MIT\r\npragma solidity ^0.8.0;\r\n\r\ncontract TransferFee{\r\n    event TransferToContract(address buyer, address indexed owner, uint indexed product_id, uint indexed date, uint reservationId);\r\n    event TransferToOwner(address buyer, address indexed owner, uint indexed product_id);\r\n    event CancelReservation(address indexed owner, uint owner_money, address indexed buyer, uint buyer_money);\r\n    event TransferToOwnerByOwner(address indexed owner, uint fee, uint indexed product_id);\r\n\r\n    struct ReservationInfo {\r\n        address owner;\r\n        address buyer;\r\n        uint product_id;\r\n        uint date;\r\n        uint price;\r\n    }\r\n\r\n    mapping (uint => ReservationInfo) public ReservationMapping;\r\n\r\n    uint private id = 0;\r\n\r\n    receive() external payable {\r\n    }\r\n\r\n    /// @dev :  contract  \r\n    function transferToContract(address owner, uint product_id, uint date) public payable {\r\n        if (msg.value > msg.sender.balance) {revert();}\r\n        require(msg.value > 0, \"You cannot send 0 klay\");\r\n\r\n        uint reservationId = id;\r\n\r\n        payable(address(this)).transfer(msg.value);\r\n        ReservationMapping[id] = ReservationInfo(owner, msg.sender, product_id, date, msg.value);\r\n        id += 1;\r\n\r\n        emit TransferToContract(msg.sender, owner, product_id, date, reservationId);\r\n    }\r\n\r\n    /// @dev : contract   \r\n    function transferToOwner(uint reservationId, address buyer_address) public payable {\r\n        require(ReservationMapping[reservationId].price <= address(this).balance, \"There is no money to transfer to the contract.\");\r\n        require(ReservationMapping[reservationId].buyer == buyer_address, \"It's not a buyer\");\r\n\r\n        uint fee = ReservationMapping[reservationId].price;\r\n        address owner = ReservationMapping[reservationId].owner;\r\n        address buyer = ReservationMapping[reservationId].buyer;\r\n        uint product_id = ReservationMapping[reservationId].product_id;\r\n\r\n        payable(owner).transfer(fee);\r\n        delete ReservationMapping[reservationId];\r\n\r\n        emit TransferToOwner(buyer, owner, product_id);\r\n    }\r\n\r\n    /// @dev :       \r\n    function cancelReservation(uint reservationId, address buyer_address, uint percent) public payable {\r\n        require(ReservationMapping[reservationId].price <= address(this).balance, \"There is no money to transfer to the contract.\");\r\n        require(ReservationMapping[reservationId].buyer == buyer_address, \"It's not a buyer\");\r\n\r\n        uint fee = ReservationMapping[reservationId].price;\r\n        uint buyer_money = fee * percent / 100;\r\n        uint owner_money = fee - buyer_money;\r\n        address owner = ReservationMapping[reservationId].owner;\r\n        address buyer = ReservationMapping[reservationId].buyer;\r\n\r\n        payable(owner).transfer(owner_money);\r\n        payable(buyer).transfer(buyer_money);\r\n        delete ReservationMapping[reservationId];\r\n\r\n        emit CancelReservation(owner, owner_money, buyer, buyer_money);\r\n    }\r\n\r\n    /// @dev : (  )contract   \r\n    function transferToOwnerByOwner(uint reservationId, address owner_address) public payable {\r\n        require(ReservationMapping[reservationId].price <= address(this).balance, \"There is no money to transfer to the contract.\");\r\n        require(ReservationMapping[reservationId].owner == owner_address, \"It's not a owner\");\r\n\r\n        uint fee = ReservationMapping[reservationId].price;\r\n        address owner = ReservationMapping[reservationId].owner;\r\n        uint product_id = ReservationMapping[reservationId].product_id;\r\n\r\n        payable(owner).transfer(fee);\r\n        delete ReservationMapping[reservationId];\r\n\r\n        emit TransferToOwnerByOwner(owner, fee, product_id);\r\n    }\r\n\r\n    function getBalanceOfContract() public view returns (uint) {\r\n        return address(this).balance;\r\n    }\r\n\r\n    function getBalanceOfAddress(address _addr) public view returns (uint) {\r\n        return _addr.balance;\r\n    }\r\n}\r\n",
  "sourcePath": "C:\\Users\\dlqhd\\Documents\\AirWithBlock_with_Klaytn\\truffle-contract\\contracts\\TransferFee.sol",
  "compiler": {
    "name": "solc",
    "version": "0.8.14+commit.80d49f37.Emscripten.clang"
  },
  "schemaVersion": "3.4.7",
  "updatedAt": "2022-07-04T01:07:30.742Z",
  "networkType": "ethereum",
  "devdoc": {
    "kind": "dev",
    "methods": {
      "cancelReservation(uint256,address,uint256)": {
        "details": ":       "
      },
      "transferToContract(address,uint256,uint256)": {
        "details": ":  contract  "
      },
      "transferToOwner(uint256,address)": {
        "details": ": contract   "
      },
      "transferToOwnerByOwner(uint256,address)": {
        "details": ": (  )contract   "
      }
    },
    "version": 1
  },
  "userdoc": {
    "kind": "user",
    "methods": {},
    "version": 1
  }
}