{
  "contractName": "TransferFee",
  "abi": [
    {
      "anonymous": false,
      "inputs": [
        {
          "indexed": false,
          "internalType": "address",
          "name": "from",
          "type": "address"
        },
        {
          "indexed": false,
          "internalType": "address",
          "name": "to",
          "type": "address"
        },
        {
          "indexed": false,
          "internalType": "uint256",
          "name": "fee",
          "type": "uint256"
        }
      ],
      "name": "TransferToContract",
      "type": "event"
    },
    {
      "anonymous": false,
      "inputs": [
        {
          "indexed": false,
          "internalType": "address",
          "name": "from",
          "type": "address"
        },
        {
          "indexed": false,
          "internalType": "address",
          "name": "to",
          "type": "address"
        },
        {
          "indexed": false,
          "internalType": "uint256",
          "name": "fee",
          "type": "uint256"
        }
      ],
      "name": "TransferToOwner",
      "type": "event"
    },
    {
      "inputs": [
        {
          "internalType": "address",
          "name": "",
          "type": "address"
        },
        {
          "internalType": "address",
          "name": "",
          "type": "address"
        }
      ],
      "name": "buyerBalances",
      "outputs": [
        {
          "internalType": "uint256",
          "name": "",
          "type": "uint256"
        }
      ],
      "stateMutability": "view",
      "type": "function",
      "constant": true
    },
    {
      "stateMutability": "payable",
      "type": "receive",
      "payable": true
    },
    {
      "inputs": [
        {
          "internalType": "address",
          "name": "_owner",
          "type": "address"
        }
      ],
      "name": "transferToContract",
      "outputs": [],
      "stateMutability": "payable",
      "type": "function",
      "payable": true
    },
    {
      "inputs": [
        {
          "internalType": "address payable",
          "name": "_owner",
          "type": "address"
        },
        {
          "internalType": "address",
          "name": "_buyer",
          "type": "address"
        }
      ],
      "name": "transferToOwner",
      "outputs": [],
      "stateMutability": "payable",
      "type": "function",
      "payable": true
    },
    {
      "inputs": [],
      "name": "getBalanceOfContract",
      "outputs": [
        {
          "internalType": "uint256",
          "name": "",
          "type": "uint256"
        }
      ],
      "stateMutability": "view",
      "type": "function",
      "constant": true
    }
  ],
  "bytecode": "0x608060405234801561001057600080fd5b50610a9f806100206000396000f3fe6080604052600436106100435760003560e01c8063229688851461004f57806373155d331461007a578063d1cb5df014610096578063ec11a00d146100d35761004a565b3661004a57005b600080fd5b34801561005b57600080fd5b506100646100ef565b6040516100719190610592565b60405180910390f35b610094600480360381019061008f919061064e565b6100f7565b005b3480156100a257600080fd5b506100bd60048036038101906100b8919061068e565b6103a0565b6040516100ca9190610592565b60405180910390f35b6100ed60048036038101906100e891906106ce565b6103c5565b005b600047905090565b600073ffffffffffffffffffffffffffffffffffffffff168273ffffffffffffffffffffffffffffffffffffffff1611610166576040517f08c379a000000000000000000000000000000000000000000000000000000000815260040161015d90610758565b60405180910390fd5b476000808373ffffffffffffffffffffffffffffffffffffffff1673ffffffffffffffffffffffffffffffffffffffff16815260200190815260200160002060008473ffffffffffffffffffffffffffffffffffffffff1673ffffffffffffffffffffffffffffffffffffffff168152602001908152602001600020541115610224576040517f08c379a000000000000000000000000000000000000000000000000000000000815260040161021b906107ea565b60405180910390fd5b8173ffffffffffffffffffffffffffffffffffffffff166108fc6000808473ffffffffffffffffffffffffffffffffffffffff1673ffffffffffffffffffffffffffffffffffffffff16815260200190815260200160002060008573ffffffffffffffffffffffffffffffffffffffff1673ffffffffffffffffffffffffffffffffffffffff168152602001908152602001600020549081150290604051600060405180830381858888f193505050501580156102e5573d6000803e3d6000fd5b507f6810a44383363f6c655b7b4bd827e3395efa504e1df1c94de2f077f101e2144530836000808573ffffffffffffffffffffffffffffffffffffffff1673ffffffffffffffffffffffffffffffffffffffff16815260200190815260200160002060008673ffffffffffffffffffffffffffffffffffffffff1673ffffffffffffffffffffffffffffffffffffffff1681526020019081526020016000205460405161039493929190610878565b60405180910390a15050565b6000602052816000526040600020602052806000526040600020600091509150505481565b343373ffffffffffffffffffffffffffffffffffffffff1631101561041f576040517f08c379a000000000000000000000000000000000000000000000000000000000815260040161041690610921565b60405180910390fd5b60003411610462576040517f08c379a00000000000000000000000000000000000000000000000000000000081526004016104599061098d565b60405180910390fd5b3073ffffffffffffffffffffffffffffffffffffffff166108fc349081150290604051600060405180830381858888f193505050501580156104a8573d6000803e3d6000fd5b50346000803373ffffffffffffffffffffffffffffffffffffffff1673ffffffffffffffffffffffffffffffffffffffff16815260200190815260200160002060008373ffffffffffffffffffffffffffffffffffffffff1673ffffffffffffffffffffffffffffffffffffffff168152602001908152602001600020600082825461053491906109dc565b925050819055507f7d4e64485497e4e512210a79d8c8eb0fa0f85677b0dbce7eccdd742b36c1673933303460405161056e93929190610a32565b60405180910390a150565b6000819050919050565b61058c81610579565b82525050565b60006020820190506105a76000830184610583565b92915050565b600080fd5b600073ffffffffffffffffffffffffffffffffffffffff82169050919050565b60006105dd826105b2565b9050919050565b6105ed816105d2565b81146105f857600080fd5b50565b60008135905061060a816105e4565b92915050565b600061061b826105b2565b9050919050565b61062b81610610565b811461063657600080fd5b50565b60008135905061064881610622565b92915050565b60008060408385031215610665576106646105ad565b5b6000610673858286016105fb565b925050602061068485828601610639565b9150509250929050565b600080604083850312156106a5576106a46105ad565b5b60006106b385828601610639565b92505060206106c485828601610639565b9150509250929050565b6000602082840312156106e4576106e36105ad565b5b60006106f284828501610639565b91505092915050565b600082825260208201905092915050565b7f54686973206973206e6f7420612076616c696420616464726573730000000000600082015250565b6000610742601b836106fb565b915061074d8261070c565b602082019050919050565b6000602082019050818103600083015261077181610735565b9050919050565b7f5468657265206973206e6f206d6f6e657920746f207472616e7366657220746f60008201527f2074686520636f6e74726163742e000000000000000000000000000000000000602082015250565b60006107d4602e836106fb565b91506107df82610778565b604082019050919050565b60006020820190508181036000830152610803816107c7565b9050919050565b61081381610610565b82525050565b6000819050919050565b600061083e610839610834846105b2565b610819565b6105b2565b9050919050565b600061085082610823565b9050919050565b600061086282610845565b9050919050565b61087281610857565b82525050565b600060608201905061088d600083018661080a565b61089a6020830185610869565b6108a76040830184610583565b949350505050565b7f5468657265206973206e6f7420656e6f756768206b6c617920696e207468652060008201527f6163636f756e7400000000000000000000000000000000000000000000000000602082015250565b600061090b6027836106fb565b9150610916826108af565b604082019050919050565b6000602082019050818103600083015261093a816108fe565b9050919050565b7f596f752063616e6e6f742073656e642030206b6c617900000000000000000000600082015250565b60006109776016836106fb565b915061098282610941565b602082019050919050565b600060208201905081810360008301526109a68161096a565b9050919050565b7f4e487b7100000000000000000000000000000000000000000000000000000000600052601160045260246000fd5b60006109e782610579565b91506109f283610579565b9250827fffffffffffffffffffffffffffffffffffffffffffffffffffffffffffffffff03821115610a2757610a266109ad565b5b828201905092915050565b6000606082019050610a47600083018661080a565b610a54602083018561080a565b610a616040830184610583565b94935050505056fea264697066735822122044e589d5c6678440127771585607e79cdbe849cbd0db394323cc1fc99263528f64736f6c634300080e0033",
  "immutableReferences": {},
  "source": "// SPDX-License-Identifier: MIT\r\npragma solidity ^0.8.0;\r\n\r\ncontract TransferFee{\r\n    event TransferToContract(address from, address to, uint fee);\r\n    event TransferToOwner(address from, address to, uint fee);\r\n\r\n    mapping (address => mapping (address => uint)) public buyerBalances;\r\n\r\n    receive() external payable {\r\n    }\r\n\r\n    /// @dev :  contract  \r\n    function transferToContract(address _owner) public payable {\r\n        require(msg.sender.balance >= msg.value, \"There is not enough klay in the account\");\r\n        require(msg.value > 0, \"You cannot send 0 klay\");\r\n\r\n        payable(address(this)).transfer(msg.value);\r\n        buyerBalances[msg.sender][_owner] += msg.value;\r\n\r\n        emit TransferToContract(msg.sender, address(this), msg.value);\r\n    }\r\n\r\n    /// @dev : contract   \r\n    function transferToOwner(address payable _owner, address _buyer) public payable {\r\n        require(_owner > address(0), \"This is not a valid address\");\r\n        require(buyerBalances[_buyer][_owner] <= address(this).balance, \"There is no money to transfer to the contract.\");\r\n\r\n        _owner.transfer(buyerBalances[_buyer][_owner]);\r\n\r\n        emit TransferToOwner(address(this), _owner, buyerBalances[_buyer][_owner]);\r\n    }\r\n\r\n    function getBalanceOfContract() public view returns (uint) {\r\n        return address(this).balance;\r\n    }\r\n\r\n}\r\n",
  "sourcePath": "C:\\Users\\dlqhd\\Documents\\AirWithBlock_with_Klaytn\\truffle-contract\\contracts\\TransferFee.sol",
  "compiler": {
    "name": "solc",
    "version": "0.8.14+commit.80d49f37.Emscripten.clang"
  },
  "schemaVersion": "3.4.7",
  "updatedAt": "2022-06-18T06:00:56.646Z",
  "networkType": "ethereum",
  "devdoc": {
    "kind": "dev",
    "methods": {
      "transferToContract(address)": {
        "details": ":  contract  "
      },
      "transferToOwner(address,address)": {
        "details": ": contract   "
      }
    },
    "version": 1
  },
  "userdoc": {
    "kind": "user",
    "methods": {},
    "version": 1
  }
}